{
  "address": "0xe657f549299EeD97C67BE9c58e886e346661c88A",
  "abi": [
    {
      "inputs": [
        {
          "internalType": "string",
          "name": "_name",
          "type": "string"
        }
      ],
      "name": "initialize",
      "outputs": [],
      "stateMutability": "nonpayable",
      "type": "function"
    },
    {
      "inputs": [],
      "name": "name",
      "outputs": [
        {
          "internalType": "string",
          "name": "",
          "type": "string"
        }
      ],
      "stateMutability": "view",
      "type": "function"
    }
  ],
  "transactionHash": "0x189e7ed86f60642a4e5ac9cbd3553a282ab7e16056c2dfe254078e3d167c3b6d",
  "args": [],
  "numDeployments": 2,
  "solcInputHash": "eec04458e714b455dbd2b5d7f58c2b4f",
  "bytecode": "0x608060405234801561001057600080fd5b50610392806100206000396000f3fe608060405234801561001057600080fd5b50600436106100365760003560e01c806306fdde031461003b578063f62d188814610059575b600080fd5b61004361006e565b60405161005091906102ce565b60405180910390f35b61006c610067366004610261565b6100fc565b005b6001805461007b90610321565b80601f01602080910402602001604051908101604052809291908181526020018280546100a790610321565b80156100f45780601f106100c9576101008083540402835291602001916100f4565b820191906000526020600020905b8154815290600101906020018083116100d757829003601f168201915b505050505081565b600054610100900460ff166101175760005460ff161561011b565b303b155b6101825760405162461bcd60e51b815260206004820152602e60248201527f496e697469616c697a61626c653a20636f6e747261637420697320616c72656160448201526d191e481a5b9a5d1a585b1a5e995960921b606482015260840160405180910390fd5b600054610100900460ff161580156101a4576000805461ffff19166101011790555b6101b0600184846101c8565b5080156101c3576000805461ff00191690555b505050565b8280546101d490610321565b90600052602060002090601f0160209004810192826101f6576000855561023c565b82601f1061020f5782800160ff1982351617855561023c565b8280016001018555821561023c579182015b8281111561023c578235825591602001919060010190610221565b5061024892915061024c565b5090565b5b80821115610248576000815560010161024d565b60008060208385031215610273578182fd5b823567ffffffffffffffff8082111561028a578384fd5b818501915085601f83011261029d578384fd5b8135818111156102ab578485fd5b8660208285010111156102bc578485fd5b60209290920196919550909350505050565b6000602080835283518082850152825b818110156102fa578581018301518582016040015282016102de565b8181111561030b5783604083870101525b50601f01601f1916929092016040019392505050565b600181811c9082168061033557607f821691505b6020821081141561035657634e487b7160e01b600052602260045260246000fd5b5091905056fea2646970667358221220c3c7951831fc7599dcac7f59bf463e2f62167b102c4e9ff0cd6a7592cad6d73e64736f6c63430008040033",
  "devdoc": {
    "kind": "dev",
    "methods": {},
    "version": 1
  },
  "userdoc": {
    "kind": "user",
    "methods": {},
    "version": 1
  },
  "storageLayout": {
    "storage": [
      {
        "astId": 854,
        "contract": "contracts/MyContract.sol:MyContract",
        "label": "_initialized",
        "offset": 0,
        "slot": "0",
        "type": "t_bool"
      },
      {
        "astId": 857,
        "contract": "contracts/MyContract.sol:MyContract",
        "label": "_initializing",
        "offset": 1,
        "slot": "0",
        "type": "t_bool"
      },
      {
        "astId": 1305,
        "contract": "contracts/MyContract.sol:MyContract",
        "label": "name",
        "offset": 0,
        "slot": "1",
        "type": "t_string_storage"
      }
    ],
    "types": {
      "t_bool": {
        "encoding": "inplace",
        "label": "bool",
        "numberOfBytes": "1"
      },
      "t_string_storage": {
        "encoding": "bytes",
        "label": "string",
        "numberOfBytes": "32"
      }
    }
  }
}